{
  "contractName": "Whitelist",
  "abi": [
    {
      "anonymous": false,
      "inputs": [
        {
          "indexed": false,
          "internalType": "address",
          "name": "_address",
          "type": "address"
        }
      ],
      "name": "Whitelisted",
      "type": "event"
    },
    {
      "inputs": [
        {
          "internalType": "address",
          "name": "",
          "type": "address"
        }
      ],
      "name": "_whitelist",
      "outputs": [
        {
          "internalType": "bool",
          "name": "",
          "type": "bool"
        }
      ],
      "stateMutability": "view",
      "type": "function"
    },
    {
      "inputs": [
        {
          "internalType": "uint256",
          "name": "",
          "type": "uint256"
        }
      ],
      "name": "addresses",
      "outputs": [
        {
          "internalType": "address",
          "name": "",
          "type": "address"
        }
      ],
      "stateMutability": "view",
      "type": "function"
    },
    {
      "inputs": [
        {
          "internalType": "address",
          "name": "_address",
          "type": "address"
        }
      ],
      "name": "whitelist",
      "outputs": [],
      "stateMutability": "nonpayable",
      "type": "function"
    },
    {
      "inputs": [],
      "name": "getAddresses",
      "outputs": [
        {
          "internalType": "address[]",
          "name": "",
          "type": "address[]"
        }
      ],
      "stateMutability": "view",
      "type": "function"
    }
  ],
  "bytecode": "0x608060405234801561001057600080fd5b50610664806100206000396000f3fe608060405234801561001057600080fd5b506004361061004c5760003560e01c80639b19251a14610051578063a39fac121461006d578063cfdb63ac1461008b578063edf26d9b146100bb575b600080fd5b61006b600480360381019061006691906103bb565b6100eb565b005b61007561026b565b60405161008291906104a6565b60405180910390f35b6100a560048036038101906100a091906103bb565b6102f9565b6040516100b291906104e3565b60405180910390f35b6100d560048036038101906100d09190610534565b610319565b6040516100e29190610570565b60405180910390f35b6000808273ffffffffffffffffffffffffffffffffffffffff1673ffffffffffffffffffffffffffffffffffffffff16815260200190815260200160002060009054906101000a900460ff1615610177576040517f08c379a000000000000000000000000000000000000000000000000000000000815260040161016e9061060e565b60405180910390fd5b60016000808373ffffffffffffffffffffffffffffffffffffffff1673ffffffffffffffffffffffffffffffffffffffff16815260200190815260200160002060006101000a81548160ff0219169083151502179055506001819080600181540180825580915050600190039060005260206000200160009091909190916101000a81548173ffffffffffffffffffffffffffffffffffffffff021916908373ffffffffffffffffffffffffffffffffffffffff1602179055507faab7954e9d246b167ef88aeddad35209ca2489d95a8aeb59e288d9b19fae5a54816040516102609190610570565b60405180910390a150565b606060018054806020026020016040519081016040528092919081815260200182805480156102ef57602002820191906000526020600020905b8160009054906101000a900473ffffffffffffffffffffffffffffffffffffffff1673ffffffffffffffffffffffffffffffffffffffff16815260200190600101908083116102a5575b5050505050905090565b60006020528060005260406000206000915054906101000a900460ff1681565b6001818154811061032957600080fd5b906000526020600020016000915054906101000a900473ffffffffffffffffffffffffffffffffffffffff1681565b600080fd5b600073ffffffffffffffffffffffffffffffffffffffff82169050919050565b60006103888261035d565b9050919050565b6103988161037d565b81146103a357600080fd5b50565b6000813590506103b58161038f565b92915050565b6000602082840312156103d1576103d0610358565b5b60006103df848285016103a6565b91505092915050565b600081519050919050565b600082825260208201905092915050565b6000819050602082019050919050565b61041d8161037d565b82525050565b600061042f8383610414565b60208301905092915050565b6000602082019050919050565b6000610453826103e8565b61045d81856103f3565b935061046883610404565b8060005b838110156104995781516104808882610423565b975061048b8361043b565b92505060018101905061046c565b5085935050505092915050565b600060208201905081810360008301526104c08184610448565b905092915050565b60008115159050919050565b6104dd816104c8565b82525050565b60006020820190506104f860008301846104d4565b92915050565b6000819050919050565b610511816104fe565b811461051c57600080fd5b50565b60008135905061052e81610508565b92915050565b60006020828403121561054a57610549610358565b5b60006105588482850161051f565b91505092915050565b61056a8161037d565b82525050565b60006020820190506105856000830184610561565b92915050565b600082825260208201905092915050565b7f54686973206164647265737320697320616c72656164792077686974656c697360008201527f7465642021000000000000000000000000000000000000000000000000000000602082015250565b60006105f860258361058b565b91506106038261059c565b604082019050919050565b60006020820190508181036000830152610627816105eb565b905091905056fea26469706673582212209b55c1a24acf565bbdb3ecd172c6d34a452129f4d175dc34216dc1dbe2b3acbb64736f6c634300080e0033",
  "immutableReferences": {},
  "source": "// SPDX-License-Identifier: MIT\npragma solidity 0.8.14;\n \ncontract Whitelist {\n   mapping(address=> bool) public _whitelist;\n   address[] public addresses;\n   event Whitelisted(address _address);\n \n   function whitelist(address _address) public {\n       require(!_whitelist[_address], \"This address is already whitelisted !\");\n       _whitelist[_address] = true;\n       addresses.push(_address);\n       emit Whitelisted(_address);\n   }\n \n   function getAddresses() public view returns(address[] memory){\n       return addresses;\n   }\n}\n",
  "sourcePath": "/Users/alexye/projetsAlyra/Blockchain/Developpeur-Ethereum-Template/6. Dapp/reactTruffleLegacy/truffle/contracts/Whithelist.sol",
  "compiler": {
    "name": "solc",
    "version": "0.8.14+commit.80d49f37.Emscripten.clang"
  },
  "schemaVersion": "3.4.7",
  "updatedAt": "2022-07-10T15:40:02.676Z",
  "devdoc": {
    "kind": "dev",
    "methods": {},
    "version": 1
  },
  "userdoc": {
    "kind": "user",
    "methods": {},
    "version": 1
  }
}