{
  "contractName": "Chainlink2",
  "abi": [
    {
      "inputs": [
        {
          "internalType": "uint64",
          "name": "subscriptionId",
          "type": "uint64"
        }
      ],
      "stateMutability": "nonpayable",
      "type": "constructor"
    },
    {
      "inputs": [
        {
          "internalType": "address",
          "name": "have",
          "type": "address"
        },
        {
          "internalType": "address",
          "name": "want",
          "type": "address"
        }
      ],
      "name": "OnlyCoordinatorCanFulfill",
      "type": "error"
    },
    {
      "inputs": [
        {
          "internalType": "uint256",
          "name": "requestId",
          "type": "uint256"
        },
        {
          "internalType": "uint256[]",
          "name": "randomWords",
          "type": "uint256[]"
        }
      ],
      "name": "rawFulfillRandomWords",
      "outputs": [],
      "stateMutability": "nonpayable",
      "type": "function"
    },
    {
      "inputs": [
        {
          "internalType": "uint256",
          "name": "",
          "type": "uint256"
        }
      ],
      "name": "s_randomWords",
      "outputs": [
        {
          "internalType": "uint256",
          "name": "",
          "type": "uint256"
        }
      ],
      "stateMutability": "view",
      "type": "function",
      "constant": true
    },
    {
      "inputs": [],
      "name": "s_requestId",
      "outputs": [
        {
          "internalType": "uint256",
          "name": "",
          "type": "uint256"
        }
      ],
      "stateMutability": "view",
      "type": "function",
      "constant": true
    },
    {
      "inputs": [],
      "name": "requestRandomWords",
      "outputs": [],
      "stateMutability": "nonpayable",
      "type": "function"
    }
  ],
  "bytecode": "0x60a0604052736168499c0cffcacd319c818142124b7a15e857ab600160006101000a81548173ffffffffffffffffffffffffffffffffffffffff021916908373ffffffffffffffffffffffffffffffffffffffff1602179055507fd89b2bf150e3b9e13446986e571fb9cab24b13cea0a43ea20a6049a85cc807cc60001b600255620186a0600360006101000a81548163ffffffff021916908363ffffffff16021790555060038060046101000a81548161ffff021916908361ffff1602179055506002600360066101000a81548163ffffffff021916908363ffffffff1602179055503480156100ef57600080fd5b50604051610a57380380610a5783398181016040528101906101119190610280565b600160009054906101000a900473ffffffffffffffffffffffffffffffffffffffff168073ffffffffffffffffffffffffffffffffffffffff1660808173ffffffffffffffffffffffffffffffffffffffff168152505050600160009054906101000a900473ffffffffffffffffffffffffffffffffffffffff166000806101000a81548173ffffffffffffffffffffffffffffffffffffffff021916908373ffffffffffffffffffffffffffffffffffffffff16021790555033600660006101000a81548173ffffffffffffffffffffffffffffffffffffffff021916908373ffffffffffffffffffffffffffffffffffffffff16021790555080600060146101000a81548167ffffffffffffffff021916908367ffffffffffffffff160217905550506102ad565b600080fd5b600067ffffffffffffffff82169050919050565b61025d81610240565b811461026857600080fd5b50565b60008151905061027a81610254565b92915050565b6000602082840312156102965761029561023b565b5b60006102a48482850161026b565b91505092915050565b6080516107896102ce6000396000818160c7015261011b01526107896000f3fe608060405234801561001057600080fd5b506004361061004c5760003560e01c80631fe543e314610051578063e0c862891461006d578063e89e106a14610077578063f6eaffc814610095575b600080fd5b61006b60048036038101906100669190610529565b6100c5565b005b610075610185565b005b61007f6102d7565b60405161008c9190610594565b60405180910390f35b6100af60048036038101906100aa91906105af565b6102dd565b6040516100bc9190610594565b60405180910390f35b7f000000000000000000000000000000000000000000000000000000000000000073ffffffffffffffffffffffffffffffffffffffff163373ffffffffffffffffffffffffffffffffffffffff161461017757337f00000000000000000000000000000000000000000000000000000000000000006040517f1cf993f400000000000000000000000000000000000000000000000000000000815260040161016e92919061061d565b60405180910390fd5b6101818282610301565b5050565b600660009054906101000a900473ffffffffffffffffffffffffffffffffffffffff1673ffffffffffffffffffffffffffffffffffffffff163373ffffffffffffffffffffffffffffffffffffffff16146101df57600080fd5b60008054906101000a900473ffffffffffffffffffffffffffffffffffffffff1673ffffffffffffffffffffffffffffffffffffffff16635d3b1d30600254600060149054906101000a900467ffffffffffffffff16600360049054906101000a900461ffff16600360009054906101000a900463ffffffff16600360069054906101000a900463ffffffff166040518663ffffffff1660e01b815260040161028c9594939291906106be565b6020604051808303816000875af11580156102ab573d6000803e3d6000fd5b505050506040513d601f19601f820116820180604052508101906102cf9190610726565b600581905550565b60055481565b600481815481106102ed57600080fd5b906000526020600020016000915090505481565b806004908051906020019061031792919061031c565b505050565b828054828255906000526020600020908101928215610358579160200282015b8281111561035757825182559160200191906001019061033c565b5b5090506103659190610369565b5090565b5b8082111561038257600081600090555060010161036a565b5090565b6000604051905090565b600080fd5b600080fd5b6000819050919050565b6103ad8161039a565b81146103b857600080fd5b50565b6000813590506103ca816103a4565b92915050565b600080fd5b6000601f19601f8301169050919050565b7f4e487b7100000000000000000000000000000000000000000000000000000000600052604160045260246000fd5b61041e826103d5565b810181811067ffffffffffffffff8211171561043d5761043c6103e6565b5b80604052505050565b6000610450610386565b905061045c8282610415565b919050565b600067ffffffffffffffff82111561047c5761047b6103e6565b5b602082029050602081019050919050565b600080fd5b60006104a56104a084610461565b610446565b905080838252602082019050602084028301858111156104c8576104c761048d565b5b835b818110156104f157806104dd88826103bb565b8452602084019350506020810190506104ca565b5050509392505050565b600082601f8301126105105761050f6103d0565b5b8135610520848260208601610492565b91505092915050565b600080604083850312156105405761053f610390565b5b600061054e858286016103bb565b925050602083013567ffffffffffffffff81111561056f5761056e610395565b5b61057b858286016104fb565b9150509250929050565b61058e8161039a565b82525050565b60006020820190506105a96000830184610585565b92915050565b6000602082840312156105c5576105c4610390565b5b60006105d3848285016103bb565b91505092915050565b600073ffffffffffffffffffffffffffffffffffffffff82169050919050565b6000610607826105dc565b9050919050565b610617816105fc565b82525050565b6000604082019050610632600083018561060e565b61063f602083018461060e565b9392505050565b6000819050919050565b61065981610646565b82525050565b600067ffffffffffffffff82169050919050565b61067c8161065f565b82525050565b600061ffff82169050919050565b61069981610682565b82525050565b600063ffffffff82169050919050565b6106b88161069f565b82525050565b600060a0820190506106d36000830188610650565b6106e06020830187610673565b6106ed6040830186610690565b6106fa60608301856106af565b61070760808301846106af565b9695505050505050565b600081519050610720816103a4565b92915050565b60006020828403121561073c5761073b610390565b5b600061074a84828501610711565b9150509291505056fea2646970667358221220c25df90215923c702ccf1e41e3471c92f6e3df6eb15df787e1b0fbafd71367ef64736f6c634300080e0033",
  "immutableReferences": {
    "110": [
      {
        "length": 32,
        "start": 199
      },
      {
        "length": 32,
        "start": 283
      }
    ]
  },
  "source": "// SPDX-License-Identifier: MIT\n// An example of a consumer contract that relies on a subscription for funding.\npragma solidity 0.8.14;\n\nimport \"../node_modules/@chainlink/contracts/src/v0.8/interfaces/VRFCoordinatorV2Interface.sol\";\nimport \"../node_modules/@chainlink/contracts/src/v0.8/VRFConsumerBaseV2.sol\";\n\ncontract Chainlink2 is VRFConsumerBaseV2 {\n  VRFCoordinatorV2Interface COORDINATOR;\n\n  // Your subscription ID.\n  uint64 s_subscriptionId;\n\n  // Rinkeby coordinator. For other networks,\n  // see https://docs.chain.link/docs/vrf-contracts/#configurations\n  address vrfCoordinator = 0x6168499c0cFfCaCD319c818142124B7A15E857ab;\n\n  // The gas lane to use, which specifies the maximum gas price to bump to.\n  // For a list of available gas lanes on each network,\n  // see https://docs.chain.link/docs/vrf-contracts/#configurations\n  bytes32 keyHash = 0xd89b2bf150e3b9e13446986e571fb9cab24b13cea0a43ea20a6049a85cc807cc;\n\n  // Depends on the number of requested values that you want sent to the\n  // fulfillRandomWords() function. Storing each word costs about 20,000 gas,\n  // so 100,000 is a safe default for this example contract. Test and adjust\n  // this limit based on the network that you select, the size of the request,\n  // and the processing of the callback request in the fulfillRandomWords()\n  // function.\n  uint32 callbackGasLimit = 100000;\n\n  // The default is 3, but you can set this higher.\n  uint16 requestConfirmations = 3;\n\n  // For this example, retrieve 2 random values in one request.\n  // Cannot exceed VRFCoordinatorV2.MAX_NUM_WORDS.\n  uint32 numWords =  2;\n\n  uint256[] public s_randomWords;\n  uint256 public s_requestId;\n  address s_owner;\n\n  constructor(uint64 subscriptionId) VRFConsumerBaseV2(vrfCoordinator) {\n    COORDINATOR = VRFCoordinatorV2Interface(vrfCoordinator);\n    s_owner = msg.sender;\n    s_subscriptionId = subscriptionId;\n  }\n\n  // Assumes the subscription is funded sufficiently.\n  function requestRandomWords() external onlyOwner {\n    // Will revert if subscription is not set and funded.\n    s_requestId = COORDINATOR.requestRandomWords(\n      keyHash,\n      s_subscriptionId,\n      requestConfirmations,\n      callbackGasLimit,\n      numWords\n    );\n  }\n  \n  function fulfillRandomWords(\n    uint256, /* requestId */\n    uint256[] memory randomWords\n  ) internal override {\n    s_randomWords = randomWords;\n  }\n\n  modifier onlyOwner() {\n    require(msg.sender == s_owner);\n    _;\n  }\n}",
  "sourcePath": "/Users/alexye/projetsAlyra/Blockchain/Developpeur-Ethereum-Template/7. Finance Dcentralise/Chainlink/contracts/Chainlink2.sol",
  "compiler": {
    "name": "solc",
    "version": "0.8.14+commit.80d49f37.Emscripten.clang"
  },
  "schemaVersion": "3.4.7",
  "updatedAt": "2022-07-21T22:29:34.942Z",
  "networkType": "ethereum",
  "devdoc": {
    "kind": "dev",
    "methods": {},
    "version": 1
  },
  "userdoc": {
    "kind": "user",
    "methods": {},
    "version": 1
  }
}